:03000000020006F5
:03005F0002000399
:0300030002008276
:20006200AE82AF83AC987D00EC30E1F85398FD8E998E828F832275FFDE75FFAD7582002287
:2000820075840F75E10475A40175E340758AC375840075B7B075840F758901758F01758EA4
:2000A200047C1F7D007E007F00000000001CBCFF091DBDFF051EBEFF011FEC4D4E4F70E93D
:2000C200758903AE897F00EE30E4F8759702758400758921759840758DCBAE884306408EE0
:2000E20088AE987F004306028E987406C0E07412C0E07480C0E01201641581158115817CB7
:1C010200007D407E027F001CBCFF091DBDFF051EBEFF011FEC4D4E4F70ED80CEEB
:0F12060048656C6C6F2C20576F726C64210A0066
:06003500E478FFF6D8FD9F
:200013007900E94400601B7A00901220780175A200E493F2A308B8000205A2D9F4DAF2755D
:02003300A2FF2A
:20003B007800E84400600A790175A200E4F309D8FC7800E84400600C7900900001E4F0A3C1
:04005B00D8FCD9FAFA
:20011E00C0088581087E008E83120062D00822C008858108AD82AE83AFF0E50824FDF8E62D
:20013E00C0E0C005C006C007E4C0E0C0E0C0E090011E1202CCAE82AF83E58124F9F5818E73
:20015E00828F83D00822C008858108E50824FBFFC007E50824FBF8E6C0E008E6C0E008E645
:20017E00C0E0E4C0E0C0E0C0E090011E1202CCAE82AF83E58124F9F5818E828F83D00822F7
:0D000600758108120078E582600302000396
:20019E00C008858108AF8274302FFF24C6501074072FFFE50824FDF8E6600474202FFFE57E
:2001BE000824F8F8E6C0E008E6C0E008E6C0E01201D2800FE50824FBF8E6C0E008E6C0E0D7
:2001DE008F8222158115811581D00822C008858108E582FFC4540FFEC007E50824F8F8E603
:2001FE00C0E008E6C0E008E6C0E0E50824FBF8E6C0E008E6C0E0E50824FDF8E6C0E08E8271
:20021E0012019EE58124FAF581D00753070FE50824F8F8E6C0E008E6C0E008E6C0E0E50845
:20023E0024FBF8E6C0E008E6C0E0E50824FDF8E6C0E08F8212019EE58124FAF581D0082233
:20025E00C008858108A9828704098705098706098707191919740429F87B20C003E626FAEA
:20027E00EF235401FBEA4203A603EC2CFCED33FDEE33FEEF33FFC000E50824FDF8C3EB96AB
:20029E00D000D00340148602C000E50824FDF8EAC396FAD000A602430401EB14FAFB70BBDF
:2002BE00A70409A70509A70609A707D00822C008858108C082C083E5812422F581E50824CB
:2002DE000EF8E4F608F6E5082405F8E5082417F6E508241FC8E508240DC82405F6E50824E8
:2002FE0017F82404FAE5082403F9A702E5082404F9A702E50824F8F987060987050987048A
:20031E008E828D838CF01211EAFFE50824F8F974012EF7E43D09F709A704EFFE7003021133
:20033E00C2BE25028003021184E508241CF97700E5082410F97700E5082411F97700E50831
:20035E002412F97700E5082413F9E4F7FCE5082414F97700E5082415F97700E508241EF992
:20037E007700E5082406F977007DFFE50824F8F9C000E5082407F8E7F60908E7F60908E750
:20039E00F6D000E5082407F987820987830987F01211EAFFA31919A78209A783E508240777
:2003BE00F9C000E50824F8F8E7F60908E7F60908E7F6D000BF253EC002C000E50824FBF933
:2003DE00E7C0E009E7C0E009E7C0E01203EE800DA90809E7C0E009E7C0E08F822215811519
:2003FE00811581D000D002E508240EF907B700020907020311BF30004047EF24C64042BD9A
:20041E00FF2EE5082406F9E775F00AA4FB8F06EE2BFBE5082406F9EB24D0F7E5082406F9ED
:20043E00E760030203A1E5082410F977010203A1ED75F00AA4FE8F03EB2EFE24D0FD0203D9
:20045E00A1BF2E0DBDFF0280030203A17D000203A1BF61004011EF2485400C5307DFE5085E
:20047E002416F977018007E5082416F97700BF20028079BF2B02806ABF2D02805BBF420219
:20049E008074BF4303020523BF4403020A67BF4603020A92BF48030203A1BF4903020A67CE
:2004BE00BF4A030203A1BF4C028050BF4F03020A77BF5003020820BF5303020599BF5403F4
:2004DE000203A1BF5503020A80BF5803020A89BF5A030203A1020A9BE508241CF9770102FD
:2004FE0003A1E5082411F977010203A1E5082412F977010203A17C010203A1E5082414F986
:20051E0077010203A1EC6017C000E50824F7F8E614F9E50824F7F8A601D0008707801AE505
:20053E000824F7F9E724FEFBE50824F7F9A7038B018703098706198B07C004C002C000E550
:20055E000824FBF9E7C0E009E7C0E009E7C0E0120572800DA90809E7C0E009E7C0E08F82BE
:20057E0022158115811581D000D002D004E508240EF907B700020907020AEDE5082417F901
:20059E00C000E50824F7F8E624FDFEE50824F7F8A606A8068603088606088607D000A703F2
:2005BE0009A70609A70719198B828E838FF0C005C004C002C001C0001211D2AE82AF83D0EE
:2005DE0000D001D002D004D005C000E5082407F8A606D000BDFF0BC000E5082407F8860543
:2005FE00D000C000E508241CF8E6D00060030206CEC000E5082407F8C001E5082406F9C3D5
:20061E00E697D001D00040030206CEC000E5082406F8C001E5082407F9E6C397FFE5082494
:20063E000EF8E508240AF9E6F70809E6F7D001D0008F061FEE605AC007C005C004C002C0E8
:20065E0001C0008500F0E50824FBF8E6C0E008E6C0E008E6C0E0A8F012067B80118500F06F
:20067E00A80808E6C0E008E6C0E075822022158115811581D000D001D002D004D005D007A2
:20069E00C000E508240AF806B600020806D00080A0C000E508240AF8C001E508240EF9E61B
:2006BE00F70809E6F7D001E5082406F8A607D000C000E508240EF8C001E508240AF9E6F751
:2006DE000809E6F7D001D000870309870609870719198B828E838FF01211EAFBFE7003026C
:2006FE00077E8D071DC374808FF063F08095F0506FC005C004C002C001C0008500F0E5082B
:20071E0024FBF8E6C0E008E6C0E008E6C0E0A8F012073380108500F0A80808E6C0E008E6ED
:20073E00C0E08E8222158115811581D000D001D002D004D005C000E508240AF806B600025A
:20075E000806D000870309870609870719190BBB00010EA70309A70609A70719190206E6A8
:20077E00E508240AF9C000E508240EF8E7F60908E7F6D000E508241CF9E77003020AEDE577
:20079E00082407F9C000E5082406F8C3E796D0004003020AEDE5082406F9C000E50824070C
:2007BE00F8E7C396FFD000E508240AF987030987058F061FEE7003020ADCC007C005C00494
:2007DE00C003C002C000E50824FBF9E7C0E009E7C0E009E7C0E01207F9800EA90809E7C009
:2007FE00E009E7C0E075822022158115811581D000D002D003D004D005D0070BBB00B20DF6
:20081E0080AFE5082417F9C000E50824F7F8E624FDFEE50824F7F8A606A80686030886052F
:20083E00088606D000A70309A70509A7061919E5082417FD2402F98707BF80004009E508A8
:20085E00240AF977438023BF60004009E508240AF977508015BF40004009E508240AF9774B
:20087E00498007E508240AF97758C000C005C004C002C000E50824FBF9E7C0E009E7C0E0C0
:20089E0009E7C0E01208A78012A90809E7C0E009E7C0E0E508240AF9878222158115811506
:2008BE0081D000D002D004D005E508240EF9740127FBE40937FEC006C005C004C003C002A9
:2008DE00C000E50824FBF9E7C0E009E7C0E009E7C0E01208F5800EA90809E7C0E009E7C000
:2008FE00E075823A22158115811581D000D002D003D004D005D0060BBB00010EC006C00591
:20091E00C004C003C002C000E50824FBF9E7C0E009E7C0E009E7C0E012093B800EA9080966
:20093E00E7C0E009E7C0E075823022158115811581D000D002D003D004D005D0060BBB00BD
:20095E00010EC006C005C004C003C002C000E50824FBF9E7C0E009E7C0E009E7C0E012090F
:20097E0081800EA90809E7C0E009E7C0E075827822158115811581D000D002D003D004D00D
:20099E0005D00674012BFBE43EFFE508240AF9B74904D0008059D000E508240AF9B75002F4
:2009BE00804DED04F98706C007C004C003C002C000E50824FBF9E7C0E009E7C0E009E7C039
:2009DE00E0A90809E7C0E009E7C0E0E5082416F9E7C0E08E821201EAE58124FAF581D000CA
:2009FE00D002D003D004D00774022BFBE43FFFE5082405F987018706C007C004C003C00297
:200A1E00C000E50824FBF9E7C0E009E7C0E009E7C0E0A90809E7C0E009E7C0E0E508241654
:200A3E00F9E7C0E08E821201EAE58124FAF581D000D002D003D004D007E508240EF9740263
:200A5E002BF7E43F09F7020AEDE5082413F97701E508241EF9770A8076E508241EF977085F
:200A7E00806DE508241EF9770A8064E508241EF97710805BE5082415F977018052C004C067
:200A9E0002C000E50824FBF9E7C0E009E7C0E009E7C0E0120AB6800DA90809E7C0E009E73A
:200ABE00C0E08F8222158115811581D000D002D004E508240EF907B7000209078011E508A7
:200ADE00240EF9A70309A705E5082406F9A707E5082415F9E77003020BEFC000E508241753
:200AFE00F9C000E50824F7F8E624FCFFE50824F7F8A607A807860308860508860608860779
:200B1E00A70309A70509A70609A707191919E5082417F977150977120977801919E508241E
:200B3E000EF88606088605D000D000C000C000E5082407F8E7F609E708F609E708F6191957
:200B5E00E5082407F8740126FBE40836FC088607A70309A70409A7071919E5082407F88641
:200B7E00820886830886F01211EAFFD0008F04D000EF7003020311C006C005C002C001C0C1
:200B9E00008500F0E50824FBF8E6C0E008E6C0E008E6C0E0A8F0120BB980108500F0A808F9
:200BBE0008E6C0E008E6C0E08C8222158115811581D000D001D002D005D0060EBE00010D11
:200BDE00C000E508240EF8A60608A605D000020B49E508241EF9E77003020311E508240DE5
:200BFE00F98703EC6060E5082417F9C000E50824F7F8E614FFE50824F7F8A607A8078607E5
:200C1E007E007D007C00A70709A70609A70509A704191919E5082413F8E6D0006003020CE4
:200C3E00FD87040987050987060987071919197D007E007F00A70409A70509A70609A707BA
:200C5E00191919020CFDE5082414F9E76036E5082417F9C000E50824F7F8E624FCFFE508B2
:200C7E0024F7F8A607A8078604088605088606088607D000A70409A70509A70609A70719EB
:200C9E001919805BE5082417F9C000E50824F7F8E624FEFFE50824F7F8A607A80786060851
:200CBE00E6FF3395E0FDFCA70609A70709A70509A704191919E5082413F8E6D0007020878F
:200CDE00040987050987060987071919197E007F00A70409A70509A70609A707191919E5EB
:200CFE00082413F9E76049E5082417F98704098705098706098707191919EF30E72B870499
:200D1E00098705098706098707191919C3E49CFCE49DFDE49EFEE49FFFA70409A70509A7D9
:200D3E000609A7071919198007E5082413F97700E508241DF977018B017E00E5082417247D
:200D5E0004C000F87600D0008805C006C002C001C0008500F0E508241EF8E6C0E08D82129A
:200D7E00025E1581D000D001D002D006C000E508241DF8E6D0007019C000E5082403F8869F
:200D9E00008605D000EDC4FDE7FC4205A70519800AC000A8028605D000A7050EC000E50887
:200DBE00241DF8E6B40100E433F6D0008603088604088605088607181818EB4C4D4F6003A3
:200DDE00020D598907E5082406F9E77007E5082406F97701E5082410F9E76003020E80E52E
:200DFE0008241CF9E7707BE508240EF98704098705E5082406F98703C0078E070FC3EF9B38
:200E1E00D007504DC007C006C005C004C003C002C000E50824FBF9E7C0E009E7C0E009E7D9
:200E3E00C0E0120E45800EA90809E7C0E009E7C0E075822022158115811581D000D002D0C3
:200E5E0003D004D005D006D0070CBC00010D1B80A7E508240EF9A70409A705E5082406F97B
:200E7E00A703E5082413F9E7604DC007C006C002C000E50824FBF9E7C0E009E7C0E009E7DE
:200E9E00C0E0120EA5800EA90809E7C0E009E7C0E075822D22158115811581D000D002D0F6
:200EBE0006D007E508240EF907B700020907E5082406F917020F81EE7003020F81E5082492
:200EDE0011F9E7604CC007C006C002C000E50824FBF9E7C0E009E7C0E009E7C0E0120F007B
:200EFE00800EA90809E7C0E009E7C0E075822B22158115811581D000D002D006D007E50833
:200F1E00240EF907B700020907E5082406F9178052E5082412F9E7604AC007C006C002C003
:200F3E0000E50824FBF9E7C0E009E7C0E009E7C0E0120F54800EA90809E7C0E009E7C0E013
:200F5E0075822022158115811581D000D002D006D007E508240EF907B700020907E5082430
:200F7E0006F917E508241CF9E76003021021E508240EF98704098705E5082406F98703C008
:200F9E00078B071BC3EE9FD0074003021048E5082410F9E7600CE508240AF9773009770013
:200FBE00800AE508240AF97720097700C007E508240AF98707C007C006C005C004C003C05C
:200FDE0002C000E50824FBF9E7C0E009E7C0E009E7C0E0120FF6800DA90809E7C0E009E7B0
:200FFE00C0E08F8222158115811581D000D002D003D004D005D006D0070CBC00010DD007C6
:20101E00020F9DE5082406F9C3EE975014E5082406F9C000E508240CF8E7C39EF6D00080D5
:20103E001AE508240CF977008011E508240EF9A70409A705E508240CF9A7038F01C000E5ED
:20105E0008240EF88607088605D0008E041EEC700302110DC000E508241DF8E6B40100E4BC
:20107E0033F6E508241DF8E6D000701009E7C4540FFCC000A802A604D000800C8704740F3C
:20109E005CC000A802F6D000C000E5082404F886008604D000C007C006C005C002C001C064
:2010BE00008500F0E50824FBF8E6C0E008E6C0E008E6C0E0A8F08500F0A80808E6C0E008A4
:2010DE00E6C0E0A8F08500F0E5082416F8E6C0E08C8212019EE58124FAF581D000D001D090
:2010FE0002D005D006D0070FBF00010D021069E508240EF9A70709A705E508241CF9E770FF
:20111E00030203118F068D07E508240CF987058D041DEC7003020311C007C006C005C00296
:20113E00C000E50824FBF9E7C0E009E7C0E009E7C0E0121155800EA90809E7C0E009E7C02E
:20115E00E075822022158115811581D000D002D005D006D0070EBE00010FE508240EF9A7D7
:20117E000609A70780A9C002C000E50824FBF9E7C0E009E7C0E009E7C0E012119D800DA947
:20119E000809E7C0E009E7C0E08E8222158115811581D000D002E508240EF907B700020992
:1411BE0007020311E508240EF88682088683850881D00822C8
:0B1215003C4E4F20464C4F41543E0021
:1811D200AA82AB831211EA6003A380F8C3E5829AF582E5839BF5832248
:1C11EA0020F71430F6148883A88220F507E6A88375830022E280F7E49322E02214
:00000001FF
